:020000040800F2
:10000000A011002069020008D92600086B2300080F
:10001000D5260008A91F0008AB2E0008000000002C
:100020000000000000000000000000001929000886
:10003000D92100080000000061270008052A0008F7
:10004000830200088302000883020008830200087C
:10005000830200088302000883020008830200086C
:10006000830200088302000883020008830200085C
:10007000830200088302000883020008830200084C
:1000800083020008830200088302000800000000C9
:1000900000000000000000000000000083020008D3
:1000A000830200088302000883020008830200081C
:1000B0008302000883020008692A000883020008FE
:1000C00083020008830200088302000883020008FC
:1000D00083020008F12B0008830200088302000855
:1000E0008302000883020008830200080000000069
:1000F0000000000000000000000000000000000000
:1001000000000000000000000000000000000000EF
:1001100000000000000000008302000883020008C5
:1001200000F002F800F090F80AA090E8000C824479
:100130008344AAF10107DA4501D100F085F8AFF256
:10014000090EBAE80F0013F0010F18BFFB1A43F0B5
:1001500001031847A0600000C0600000103A24BFEF
:1001600078C878C1FAD8520724BF30C830C144BF1C
:1001700004680C607047000000230024002500265E
:10018000103A28BF78C1FBD8520728BF30C148BFFA
:100190000B6070476E2900F05583702900F097843A
:1001A000662905F0A387652905F0A087672905F072
:1001B0009D87612905F09C8703681B0A28BF41F0D1
:1001C0008001692900F0C080642900F0BD80752994
:1001D00000F0BA806F2900F02484782900F063844D
:1001E000E92900F0BF83E42900F0BC83F52900F081
:1001F000B983EF2900F02184F82900F062840368B4
:10020000DB0928BF41F08001632901F04B8073298D
:1002100001F05080E32901F05B80F32901F0608058
:10022000002070471FB500F05DFC04000020002195
:1002300005F030FF401C60600020002105F040FF09
:10024000E0601FBD10B510BD01F072F81146FFF758
:10025000E9FF05F087F901F043F903B4FFF7F2FF76
:1002600003BC01F087F900000948804709480047AE
:10027000FEE7FEE7FEE7FEE7FEE7FEE7FEE7FEE756
:10028000FEE7FEE704480549054A064B70470000B3
:10029000092A000821010008A00B0020A01100205D
:1002A000A00D0020A00D00201CB50C46064B7B4481
:1002B00069460090204600F0DEFA044600206946B8
:1002C00000F0ECFA20461CBDEB0500000FB41CB595
:1002D000084B06AA7B4469460090059800F0CBFACB
:1002E00004460020694600F0D9FA20461CBC5DF89F
:1002F00014FB0000C505000070B504468569006860
:10030000C10601D5302600E02026C00707D070BD09
:10031000D4E9012130469047206A401C20626D1EBE
:10032000F6D570BD70B5044685690078C00707D161
:1003300070BDD4E9012120209047206A401C206232
:100340006D1EF6D570BD00002DE9F0410646002473
:1003500010687529314616A510D000F0DFF9002885
:1003600002DA404213A507E031688A0701D512A5D9
:1003700002E0490704D511A5012401E000F0D7F9F6
:1003800000210A2206F1240709E0B0FBF2FCB0FBD1
:10039000F2F302FB1C00303078541846491C002848
:1003A000F3D123462A463046BDE8F04100F0F1B9CA
:1003B000000000002D0000002B00000020000000C5
:1003C0002DE9F05F894604464FF0000ADFF874B16A
:1003D000FB44C0F820A02046E1688847002874D07C
:1003E000252806D0D4E901219047206A401C2062CC
:1003F000F1E700265F462046E16888472028054649
:1004000007DB312D05D2781910F8200C08B106430E
:10041000F1E7B00701D526F00406C4F81CA00027B8
:10042000C4F818A02A2D09D0284602F003FE38B3DC
:1004300004EB8708303DC8F8185019E059F8041B40
:10044000204604EB87029161E1688847012F054649
:1004500018D1E069002820DA26F020061DE0D8F83F
:10046000180000EB800005EB40003038C8F8180099
:100470002046E1688847054602F0DCFD0028EED101
:10048000012F0AD02E2D08D12046E16888477F1C15
:100490000546022F46F02006C4DBA069002803DAD7
:1004A000404246F00106A061F00701D026F0100698
:1004B0006C2D0BD0682D09D04C2D39D06A2D35D03C
:1004C000742D35D07A2D33D016E038E0E1682F4610
:1004D00020468847B842054609D16C2F26D04FF4F4
:1004E0008060E168064320468847054604E06C2F9B
:1004F0001AD04FF4807006430DB3A5F141001928BE
:1005000002D8203546F400664A4629462046266031
:100510004E46FFF73FFE80B101280BD0F61D26F0B6
:10052000070000F1080956E74020E4E78020D8E7FB
:100530000020D6E706F104094DE7284652E7206A75
:10054000BDE8F09F205D000010B5431C02E010F8EC
:10055000011B71B18107FAD14FF0013202C88C1A28
:100560008C4314EAC211F9D0C01A0A0603D0C01E87
:1005700010BDC01A10BD0A0401D0801E10BD0902B2
:10058000FCD0401E10BD032A40F2308010F0030C56
:1005900000F0158011F8013BBCF1020F624498BFD6
:1005A00011F801CB00F8013B38BF11F8013BA2F173
:1005B000040298BF00F801CB38BF00F8013B11F0EE
:1005C000030300F02580083AC0F0088051F8043B8E
:1005D000083A51F804CBA0E80810F5E7121D5CBFFB
:1005E00051F8043B40F8043BAFF30080D20724BF2E
:1005F00011F8013B11F801CB48BF11F8012B24BFC2
:1006000000F8013B00F801CB48BF00F8012B704710
:1006100010B5203AC0F00B80B1E81850203AA0E89D
:100620001850B1E81850A0E81850BFF4F5AF5FEAD1
:10063000027C24BFB1E81850A0E8185044BF18C984
:1006400018C0BDE810405FEA827C24BF51F8043B2B
:1006500040F8043B08BF7047D20728BF31F8023B7F
:1006600048BF11F8012B28BF20F8023B48BF00F813
:10067000012B70474FF000020429C0F0128010F0E7
:10068000030C00F01B80CCF1040CBCF1020F18BF6E
:1006900000F8012BA8BF20F8022BA1EB0C0100F001
:1006A0000DB85FEAC17C24BF00F8012B00F8012BD4
:1006B00048BF00F8012B70474FF0000200B5134609
:1006C00094469646203922BFA0E80C50A0E80C5072
:1006D000B1F12001BFF4F7AF090728BFA0E80C5023
:1006E00048BF0CC05DF804EB890028BF40F8042B1C
:1006F00008BF704748BF20F8022B11F0804F18BF89
:1007000000F8012B704770477047704710B500F034
:10071000E9F9001D10BD00BF7D59000009684A05B8
:1007200001D540B27047C905FCD500B270470968D1
:100730004A0501D5C0B27047C905FCD580B27047E3
:1007400070B50C460546012A05D02878800600D5EC
:10075000EA69002302E0012305E05B1C934202D218
:10076000E05C0028F9D1A869E618C01AA861286AD7
:10077000184428622846FFF7BFFD04E0D5E90121AF
:1007800014F8010B9047B442F8D32846FFF7CAFD8E
:1007900070BD2DE9F0470D4699469246044600F19A
:1007A00024080168880604D5E06921F01001216061
:1007B00000E00120A84201DD471B00E00027A169FD
:1007C0007A1902EB0900081AA0612078C00602D449
:1007D0002046FFF791FD002608E0D4E901211AF830
:1007E00006009047206A401C761C20624E45F4DBD0
:1007F0002078C0060AD52046FFF77EFD06E0D4E942
:10080000012130209047206A401C2062381EA7F149
:100810000107F4DC07E0D4E9012118F8050090474E
:10082000206A401C2062281EA5F10105F3DC204649
:10083000FFF778FD2078000602D50220BDE8F0879A
:100840000120FBE711680268006A530501D50870B2
:100850000AE0D30501D5088006E0130603D5C217C8
:10086000C1E9000200E008600120704701694A1CEC
:1008700002610878704700B58FB0CDE901310021E1
:10088000059105497944CDE9031011466846FFF703
:1008900097FD0FB000BD0000E5FFFFFF0A6802F8FA
:1008A000010B0A60704700002DE9FF5F15468A467C
:1008B0000446DFF8AC80F8440027D8E900103E4633
:1008C000CDE9001010E03AF816106A4602A800F0D0
:1008D0000BFD411C07D02178890603D5E269391840
:1008E00091420DD80744761C2078800602D5E06935
:1008F000B84205DDAE42E6DB3AF816000028E2D148
:10090000A069C01BA0612046FFF7F6FCD8E90010E3
:10091000CDE90010002017E03AF818106A4602A846
:1009200000F0E2FCB0F1FF3F81460BD000250DF155
:10093000080B05E0D4E901211BF8050090476D1C68
:100940004D45F7D308F10100B0428046E4DB206A50
:10095000384420622046FFF7E5FCBDE8FF9F000019
:100960004E5800002DE9F0418046D21D22F00702CA
:100970000025D2E90002F52915A614D0011E72F156
:10098000000106DA0023D0EB030063EB020211A69C
:1009900008E0D8F800108B0701D50FA602E0490740
:1009A00001D50EA601251146002408F1240704E014
:1009B00000F09CF830323A55641C50EA0102F7D13D
:1009C0002B46324621464046BDE8F041FFF7E1BEE6
:1009D000000000002D0000002B000000200000009F
:1009E00030B4002100F1240408E002F00705D20829
:1009F000303542EA4372DB086554491C52EA03056C
:100A0000F3D10468002310A2250707D5A40600D45B
:100A100021B1C46901230DA2641EC46130BCFFF77B
:100A2000B8BE10B5044621461068FFF780FE0246A6
:100A30002046BDE810400023D2E7D21D22F0070176
:100A4000D1E90023CCE700000000000030000000E6
:100A5000F0B40D460188090502D5214C7C4402E022
:100A60001F4C7C440E34002100F1240608E002F003
:100A70000F071209E75D42EA03721B097754491C0C
:100A800052EA0307F3D102780023120704D5702D30
:100A900006D009B1022311342246F0BCFFF779BE1B
:100AA00001231034F8E770B504460D46214610685E
:100AB000FFF73DFE024629462046BDE87040002370
:100AC000C6E7D21D22F00703D3E90023C0E703687D
:100AD000126843F0200303600823C3610023B7E7D3
:100AE000B0560000004870475C0B002030B5B0F1F4
:100AF0000A024FEA900E71F100034EEA817EB0EBDC
:100B00000E0061EB91014FEA101E4EEA017E10EBE0
:100B10000E0041EB11114FEA102E4EEA016E10EB60
:100B20000E0041EB11214FEA104E4EEA014E10EB40
:100B30000E0041EB1141401841F100014FEAD00095
:100B400040EA41704FEAD10110EB80054FEA810481
:100B500044EA907444EB01046D1944EB0404521B05
:100B6000A3414FF0000348BF0A3200D530BD401CFE
:100B700041F1000130BD70472DE9FF4F0C461E4684
:100B80004FF0FF378BB0D2E90001DDF860800A90AA
:100B90008A46C1F30A5505B93D46002108464FF083
:100BA0000000BAF1000F00F4400005DA00EB80000D
:100BB0004FF4400101EA50004FEA9059B9F1010F9A
:100BC00000DDB9460A9850EA4A000ED044F61050AB
:100BD000A5F2FF3545432F14B8F1000F1ED0754222
:100BE000291E1EDDC9F100021CE0B8F1010F4FF013
:100BF000000001D0302103E0F24305E02154401C05
:100C0000B042FBDB30460022002121540B99C1F891
:100C10000880C1E900200FB0BDE8F08FBD1B6D1C3E
:100C2000DEE74A4600DA694206A800F0E7FB06ABB9
:100C300093E8070003AB83E8070050460A9900F0E9
:100C4000A0FC8DE80700A0F500501F380090039825
:100C5000002D0ADD42F21F014A460844002303A981
:100C60000390684600F009FF09E0A0F500504A46ED
:100C70001F38002303A90390684600F013FF8DE896
:100C800007000004000C03D04FF0FF30410800E0E3
:100C90001046B8F1000F03D00022009215461EE066
:100CA000751E05D4FFF722FF303262556D1EF9D54F
:100CB000B3460122084302D000227F1C04E02078C2
:100CC000302801D100227F1E002A099784D01DE020
:100CD000112D07DAFFF70AFF303262556D1C50EA1A
:100CE0000102F5D1084302D00098C8B10EE00021FE
:100CF000681E05E0235C625C63542254401E491C5C
:100D00008142F7DBAB46A81B401E0990002004F887
:100D10000B000B98099AC0F80880C0E9002B7AE70D
:100D200011264FF0000857E72DE9F04F884604469A
:100D3000D21D22F0070191B0D1E90001CDE90A01ED
:100D400002F064F902460B98C00F01D02D2007E095
:100D50002068810701D52B2002E0202101EAC00094
:100D6000032A099001D0072A05DB034641462046A5
:100D700000F004FB0BE12078800601D5E06900E07B
:100D80000620B8F1650F814606D0B8F1660F18D07D
:100D9000B8F1670F70D131E00020B9F1110F009068
:100DA00001DB112301E009F101030AAA01A90CA842
:100DB000FFF7E2FEDDE90C70002609F1010583462C
:100DC00047E001204B4600904FF000470AAA01A9D6
:100DD0000CA8FFF7D1FEDDE90DB00C995D460026A9
:100DE00010B909F101000D18B9EB050003D4C0F1E9
:100DF000FF3609F10105A5EB09002BE0B9F1010F60
:100E000001DA4FF001090020B9F1110F00904846B6
:100E100001DD112300E003460AAA01A90CA8FFF78F
:100E2000ABFEDDE90C704D460026834620780007B6
:100E30000AD4AB4500DA5D4601A8012D04DD411955
:100E400011F8011C302907D04F4502DA17F1040FC1
:100E500004DA012082460FE06D1EEEE7002F02DC6F
:100E6000ED1B3E4403E0781CA84200DD7D1CB81B4E
:100E700000F1010A4FF000472078000703D4AA458B
:100E800001DB4FF0FF3A0021B7F1004F0DF14308AD
:100E90008DF8431024D002202B23002F01DA7F424B
:100EA0002D230A21021EA0F1010000DC5FB197FB97
:100EB000F1FC97FBF1F201FB1C7C17460CF1300CA6
:100EC00008F801CDEEE7A8F10100037021880905BB
:100ED00001D5452100E06521A0F1010800F8011CC1
:100EE00009980FA9A1EB0807FF1D00B101204119C6
:100EF00001EBEA70A1693844081A401EA06120780D
:100F0000C00602D42046FFF7F7F9099828B1D4E9C2
:100F100001219047206A401C20622078C00622D51B
:100F20002046FFF7E9F91EE0002E04DBB34502DDA1
:100F300001A8805D00E03020D4E901219047206ABB
:100F4000401C2062761CAAF101005FEA000A0AD167
:100F5000FFF7C8FDC0680168405CD4E901219047F3
:100F6000206A401C2062281EA5F10105DCDC07E098
:100F7000D4E9012118F8010B9047206A401C206237
:100F8000381EA7F10107F3DC2046FFF7CBF9032059
:100F900011B041E62DE9F04F04460D46D21D22F076
:100FA000070089B0D0E900974846394602F02EF88C
:100FB0000246F80F01D02D2307E02068810701D5F4
:100FC0002B2302E0202101EAC0038DF820300BB171
:100FD000012000E00020032A824601D0072A04DB1A
:100FE0002946204600F0CAF93FE12078800601D466
:100FF0000D2500E0E569C7F30A560D2D49DA0021F9
:101000004FEA175B08464FF00000002F00F4400045
:1010100007DA00EB80004FF4400100EBD07001EAEA
:1010200060008115012901DD4FF0FF3100224FEAF8
:10103000850CBCF1180F06D31346ACF118004FF025
:101040008052C24003E04FF4801323FA0CF30CF1FA
:101050000C0CBCF1200F04D3ACF1200C09FA0CF0FD
:1010600001E007FA0CF000294FF0004801DD18B943
:101070000FE00ED140450CD319EB02095F4121B9B5
:10108000404502D19F4329EA0209BBEB175F00D01C
:10109000761C2088000502D57B48784402E07A4817
:1010A0007844193808AA302302F80A30037C0AF180
:1010B0000101002E0AF1020A53546A4602DC4FF085
:1010C000300101E04FF031014FF001088DF80010C0
:1010D00002D0A6F2FF3603E059EA470100D06B4E7A
:1010E000002D02DC2178090704D54FF002082E21DB
:1010F0008DF80110C44600210BE0C7F303433F0104
:10110000C35C491C6D1E02F80830052908F101086E
:1011100001DA002DF1DC00210CE000EB1973491C11
:101120001B786D1E082902F808304FEA091908F1EA
:10113000010801DA002DF0DC21688B0602D516E0EB
:10114000A8F10108E04505DD02EB080313F8013CB6
:10115000302BF5D0B8F1000F09DD02EB080313F8CE
:10116000013C2E2B03D1090701D4A8F10108002D61
:1011700005DD3E2102F808106D1E08F10108407CD3
:10118000002E02F8080008F1010804DA2D2076424A
:1011900002F8080002E02B2002F808000A214FF4B0
:1011A0007A70864208F101080BDB96FBF0F33033CE
:1011B00002F8083096FBF0F308F1010800FB136613
:1011C00001E0642E0CDB642096FBF0F3303302F870
:1011D000083096FBF0F308F1010800FB136601E00C
:1011E0000A2E06DB96FBF1F0303002F8080008F119
:1011F000010896FBF1F001FB1060303002F80800A6
:10120000A16908F1010808EB050202EB0A00081ABF
:10121000A0612078C00602D42046FFF76DF8216A4D
:1012200008AE01EB0A00206204E0D4E9012116F8BF
:10123000010B9047BAF1010AF7D22078C00602D517
:101240002046FFF759F86E4609E016F8010B3E28D4
:101250000FD0D4E901219047206A401C2062B8F1E8
:101260000108F2D22046FFF75DF809B00320BDE87F
:10127000F08F206A2844206203E0D4E90121302065
:1012800090476D1EEBD3F8E7AD50000002FCFFFF66
:1012900010B5436913B1AFF3008001E0FFF750FAD6
:1012A000012010BD127800F124010A7000224A705A
:1012B0000122EDE711684FF0FF32E9E710B543690D
:1012C00013B1AFF3008001E0FFF7EEFA012010BD8B
:1012D000128800F1240182840022C2840122EDE7F9
:1012E00011684FF0FF32E9E770B516460C46054627
:1012F000FFF70CFA036893F80101012806D0FF2CD0
:101300000FD8185D68B101202C7070BDD3F80701AB
:101310003246214603F2071303442846BDE87040D5
:1013200018474FF0FF3070BD004870473C0B00205D
:101330007546FFF7F9FFAE4605006946534620F0B3
:101340000700854618B020B5FEF79CFFBDE8204099
:101350004FF000064FF000074FF000084FF0000B71
:1013600021F00701AC46ACE8C009ACE8C009ACE824
:10137000C009ACE8C0098D46704700002DE9F04176
:101380001F46044603260168072A01F4006004DBB7
:1013900008B116A505E016A503E008B115A500E003
:1013A00015A521F010002060A069C01EA0610FB13A
:1013B000401EA0612046FEF79FFF4FB1D4E90121F6
:1013C00038469047206A401C2062C01C206206E01C
:1013D000206AFAE7D4E9012115F8010B9047761E3F
:1013E000F8D22046FEF79EFFBDE8F0814E414E0048
:1013F0006E616E00494E4600696E66002DE9F04749
:10140000814616468AB0354878440DC88DE80D00EF
:1014100032487844801C03AC0DC884E80D0041F6C6
:101420009B300844372190FBF1F290FBF1F5A5F1D8
:10143000800501FB12041B3C02D56442012000E040
:101440000020DFF898A080460027FA44AAF1BE0ADF
:101450000EE0E0070AD03246684607EB4701012359
:101460000AEB810100F01EFB8DE8070064107F1C71
:10147000002CEED1194F7F44AE3F19E0E80715D09C
:1014800007EB04100DF1180A90E80E008AE80E0030
:10149000C068F04201D1981908903246012306A98C
:1014A00003A800F0FFFA03AB83E807006D10641C8B
:1014B000002DE3D14FF0010332466946B8F1000F29
:1014C00003A802D000F0D9FA01E000F0EBFAC9E974
:1014D0000001C9F808200AB0BDE8F087D04D00002F
:1014E00010B50446AFF300802046BDE81040FEF77B
:1014F000B4BE00004FF0013C50F8042B51F8043BFF
:101500009A4221D1A2EB0C03934313EACC1317D1D7
:1015100050F8042B51F8043B9A4215D1A2EB0C036E
:10152000934313EACC130BD150F8042B51F8043B2E
:101530009A4209D1A2EB0C03934313EACC13DBD0FC
:101540004FF00000704700BFD01A01BAB1FA81F124
:1015500001F0180122FA01F0CB40C1F12001DBB209
:10156000C0B2C01A2CFA01F3D11A914311EAC31187
:10157000E6D1704701491820ABBEFEE72600020005
:1015800070475FEA400C08BF91F0000F4FEA8C23D0
:101590004FEAC12243EA51514FEA1C5018BF00F5EF
:1015A000F0404FEA300018BF41F000415FEA6C5C48
:1015B00000F02980BCF1FF3F08BF40F08040704739
:1015C000130C06BF12044FF0100C4FF0000C130E5A
:1015D00004BF12020CF1080C130F04BF12010CF12E
:1015E000040C930F04BF92000CF1020CD30F04BF44
:1015F00052000CF1010C11464FF00002A0F11F0047
:10160000A0EB0C00704711F0004F08BF704731F09D
:1016100000413FF4D5AF0B0C06BF09044FF0100C8E
:101620004FF0000C0B0E04BF09020CF1080C0B0F5D
:1016300004BF09010CF1040C8B0F04BF89000CF1ED
:10164000020CCB0F04BF49000CF1010CCCF12003BC
:10165000A0EB0C0022FA03F302FA0CF241EA0301B8
:1016600000F10100704720F07F4C80EA030023F076
:101670007F47ACEB070303F57C5300F0004003F118
:10168000FF032DE980494FEA154B09B44FEA144393
:1016900025EA0B4E24EA03480FF2042606EB132733
:1016A00049083E785FEA320203FB0667C7F5000788
:1016B00007FB06F64FEA54374FEAD64606F1020614
:1016C00007FB066CCCF1005C4FEA1C472CEA074C88
:1016D00007FB06F40CFB06F504EB15464FEA9616DD
:1016E00034BF00204FF000404FEAD13706FB07FC23
:1016F0004FEA1C4C0CFB0BF7D21B03FB0CF761EB06
:1017000007010CFB0EF7B0EB074072EB17420CFB26
:1017100008F734BFA2EB0742B2EB074261EB174177
:101720004FEA0C444FEA910706FB07FC4FEA1C4CBA
:101730000CFB0BF7B0EBC74072EB573203FB0CF717
:1017400034BFA2EBC742B2EBC74261EB57310CFB8F
:101750000EF7B0EBC70072EB57720CFB08F734BF03
:10176000A2EBC702B2EBC70261EB5771039F4FEACE
:10177000816141EA921104EBCC044FEAD1374FEA80
:10178000826206FB07FC42EA90124FEA80604FEA51
:101790001C4C0CFB0BF7D21B03FB0CF761EB070196
:1017A0000CFB0EF7B0EB074072EB17420CFB08F78F
:1017B00034BFA2EB0742B2EB074261EB17414FEA9D
:1017C0008C554FEA910704EB9C2406FB07FC4FEA7B
:1017D0001C4C0CFB0BF7B0EBC74072EB573203FB12
:1017E0000CF734BFA2EBC742B2EBC74261EB5731F3
:1017F0000CFB0EF7B0EBC70072EB57720CFB08F74F
:1018000034BFA2EBC702B2EBC70261EB577115EB15
:101810004C254FEA816141EA92114FEA82624FEA18
:10182000D13742EA901206FB07FC44F100044FEA6C
:1018300080604FEA1C4C0CFB0BF7D21B03FB0CF730
:1018400061EB07010CFB0EF7B0EB074072EB1742A0
:101850000CFB08F734BFA2EB0742B2EB074261EB87
:10186000174115EB1C154FEA813141EA92414FEACD
:10187000823242EA90424FEA80304FEA0C7644F1DD
:10188000000448EA03434EEA0B484FF0000EB2EB67
:10189000080C71EB030724BF624639464EEB0E0E6F
:1018A0004FF0000B0018524149414BEB0B0BB2EBD0
:1018B000080C71EB03077BF1000B24BF624639462D
:1018C0004EEB0E0E4FF0000B0018524149414BEB0E
:1018D0000B0BB2EB080C71EB03077BF1000B24BF81
:1018E000624639464EEB0E0E51EA020718BF46F02B
:1018F000010616EB0E7655F1000254F1000103D5F6
:10190000BDE88901BDE80088BDE88901BDE800485F
:10191000B619524141EB0101A3F1010370478080E8
:101920007F7E7D7C7B7A7978777676757473727139
:1019300071706F6E6E6D6C6C6B6A6A6968686766F1
:1019400066656464636362616160605F5F5E5E5D83
:101950005D5C5C5B5B5A5A595958585757565655F7
:1019600055555454535352525251515050504F4F59
:101970004F4E4E4D4D4D4C4C4C4B4B4B4A4A4A49A9
:1019800049494848484747474746464645454544EC
:101990004444444343434342424242414141002B79
:1019A0009C4630D477002BD01CB54FEA370703B4E0
:1019B0004FF010004FF01001BAF1000F06D0BCF14B
:1019C000000FDCBF40F0080040F008014FF00000BD
:1019D0000FBCBDE810400BF1010BBBF1010F08BFBC
:1019E0005FEA170722BF12F1010211F101014FF066
:1019F000004143F1000300F0004043EA000070475B
:101A0000F9D35708D0E746EA064613F1400F4FEAEC
:101A100016461FDD13F1200FDFBF16430A460021D3
:101A200020335B42BED0C3F1200746EA064602FAE5
:101A300007F74FEA164646EA0706C3F1200722FADF
:101A400003F201FA07F721FA03F14FF0000342EA2B
:101A50000702A7E746EA020646EA06464FEA1646A6
:101A600046EA0106BCBF46EA0646360C4FF00003C4
:101A70004FF000024FF0000194E72DE9804C9A46A8
:101A8000934670B491E8380007C831EA400C48BF6B
:101A900034EA430C03D5FFF7E6FDFFF780FFF0BC07
:101AA000BDE8008C2DE9804C9A46934670B491E8CD
:101AB000380007C810F0804F08BF13F0804F03D1E3
:101AC00000F005F8FFF76BFFF0BCBDE8008C20F0DC
:101AD0007F4780EA030023F07F4C07EB0C03A3F55C
:101AE0007C5300F00040A3F1FE0392F0000F00F0E1
:101AF000B38095F0000F00F077802DE901494FEA9F
:101B000011404FEA144621EA004800FB06FC24EA93
:101B1000064708FB06F607FB08F800FB07F718EB7B
:101B200006484CEB164C4FEA124B18EB07484FEAAD
:101B300015464CEB174022EA0B4E0BFB06FC25EA40
:101B400006470EFB06F607FB0EFE0BFB07F71EEB28
:101B5000064E4CEB164C4FF000061EEB074E4CEBBE
:101B6000174B18EB0B0840F1000018EB0E0B58EB6D
:101B7000000840F100008F1A4FF000013CBFC9433C
:101B8000661B14BFB5EB040C00213CBFC943F61B18
:101B90004FEA17444EEA8E0E27EA04454FEA1C47E7
:101BA00004FB07622CEA074C05FB07F70CFB05F664
:101BB00004FB0CFC16EB074642EB174216EB0C46F7
:101BC00042EB1C421BEB060658EB0202414146EA7F
:101BD0009E0601D5BDE80189B619524141EB0101CC
:101BE000A3F10103BDE801894FEA14454FEA11470B
:101BF00024EA054621EA074C05FB07F406FB07F734
:101C00000CFB06F105FB0CFC11EB074144EB174400
:101C10004FEA124711EB0C4144EB1C4422EA074CFB
:101C200005FB07F206FB07F70CFB06F605FB0CFCB1
:101C300016EB074642EB174216EB0C4642EB1C45EF
:101C40006A1854F1000148BF7047B619524141EB80
:101C50000101A3F10103704795F0000F37D04FEA5F
:101C600011424FEA144721EA024624EA074C02FBDC
:101C700007F106FB07F70CFB06F402FB0CFC14EB68
:101C8000074441EB17414FEA154714EB0C4441EB75
:101C90001C4125EA074C02FB07F506FB07F70CFB86
:101CA00006F602FB0CFC16EB074645EB174516EB58
:101CB0000C4645EB1C42121951F1000148BF704718
:101CC000B619524141EB0101A3F1010370474FEAFC
:101CD00014454FEA114724EA054621EA074C05FB63
:101CE00007F106FB07F70CFB06F24FF0000605FBB9
:101CF0000CFC12EB074241EB174112EB0C4251EB8B
:101D00001C4148BF7047921841EB0101A3F1010348
:101D1000704721B1826842F00102826003E082686C
:101D200022F001028260704721B1826842F4807221
:101D3000826003E0826822F480728260704701460C
:101D400000208A6802F004020AB1012000E00020AD
:101D50007047014600208A6802F008020AB101209B
:101D600000E000207047000030B50246002000234C
:101D700050680F4C20400D790C6844EA052420433C
:101D8000506090680B4C2040D1E902542C434D79AF
:101D900044EA450420439060D06A20F470000C7C33
:101DA000641EE4B2234340EA0350D06230BD000019
:101DB000FFFEF0FFFDF7F1FFF0B504460D460020F1
:101DC0000021092D11DDE068A5F10A0606EB4607A2
:101DD000072606FA07F18843A5F10A0606EB460630
:101DE00003FA06F10843E0600CE0206905EB4507C3
:101DF000072606FA07F1884305EB450603FA06F1C4
:101E000008432061072A0FDA606B561E06EB86072F
:101E10001F2606FA07F18843561E06EB860605FACA
:101E200006F10843606322E00D2A0FDA206BD61F0B
:101E300006EB86071F2606FA07F18843D61F06EB36
:101E4000860605FA06F10843206310E0E06AA2F175
:101E50000D0606EB86071F2606FA07F18843A2F156
:101E60000D0606EB860605FA06F10843E062F0BDB2
:101E7000816841F008018160704721B1826842F4B5
:101E8000A002826003E0826822F4A00282607047B0
:101E9000816841F0040181607047000000B591B095
:101EA0000121480200F09AFC0121082000F096FC74
:101EB0000121084600F062FC4FF4004000F052FCA3
:101EC00000208DF843000320ADF840008DF842005B
:101ED00010A9314800F0A6F90523012208212F4856
:101EE000FFF76AFF0523022209212C48FFF764FF50
:101EF00000200B900E904FF460200D9001208DF883
:101F000031008DF8300002208DF83C000BA92348E9
:101F1000FFF72AFF21484C300090801506900020E2
:101F200004901F4801904FF4806007908020059036
:101F300000200290022003902020089000200A90A8
:101F40004FF4805009906946164800F027F90121A6
:101F5000144800F017F901211048FFF7E5FE0121B0
:101F60000E48FFF7D6FE0D48FFF782FF00BF0B4873
:101F7000FFF7EFFE0128FAD00848FFF789FF00BFFE
:101F80000648FFF7DCFE0128FAD001210348FFF7DD
:101F900074FF11B000BD0000000C0140002401409E
:101FA000140000200800024000BFFEE710B5002426
:101FB000002000F049F804E0601CC4B2012001F0E8
:101FC00058F84FF480710F4800F0B7F908B1642C4D
:101FD000F2DB642C01DB012010BD002404E0601C56
:101FE000C4B2012001F045F84FF48071054800F0BB
:101FF000A4F908B9642CF2DB642C01DB0120EBE7C7
:102000000020E9E7000C014008B50121082000F09C
:10201000E5FB4FF48070ADF8000010208DF8030050
:1020200003208DF802006946064800F0FBF84FF4E3
:102030008071044800F090F900F08CF8FFF7B6FFCB
:1020400008BD0000000C014038B5044654B14FF4FF
:102050008070ADF8000003208DF8020010208DF88C
:10206000030006E04FF48070ADF8000004208DF806
:1020700003006946014800F0D5F838BD000C014066
:1020800010B5002404E0601CC4B2012000F0F1FF90
:102090004FF48071104800F050F908B1642CF2DB65
:1020A000002404E0601CC4B2012000F0E2FF4FF401
:1020B0008071094800F041F908B9642CF2DB28204E
:1020C00000F0D7FF4FF48071034800F036F908B1F3
:1020D000012010BD0020FCE7000C014070B5002479
:1020E000002506E06006040EFFF7CAFF0443681CE3
:1020F000C5B2082DF6DB204670BD7CB505460E4600
:1021000000F028F8FFF752FFF8B9002405E0FFF7C8
:10211000E5FF0DF80400601CC4B2052CF7DB9DF848
:1021200000009DF8011008449DF8021008449DF835
:10213000031008449DF80410884208D19DF800005F
:1021400030709DF80200287001E001207CBD002065
:10215000FCE7000010B50120FFF776FF4FF4807117
:10216000074800F0F7F8142000F06BFF4FF480717F
:10217000034800F0F1F81E2000F07BFF10BD0000C6
:10218000000C014021B1026842F00102026004E04B
:1021900002684FF6FE731A400260704710B50022C5
:1021A000026847F6F0739A430C6A8B6823430C6904
:1021B00023434C6923438C692343CC6923434C6AF2
:1021C00023438C6A23431A430260CB6843600B6845
:1021D00083604B68C36010BD7047000008B50121E3
:1021E000042000F0FBFA0121102000F0F7FA4FF470
:1021F0006040ADF8000010208DF8030003208DF83A
:1022000002006946054800F00DF8FF20ADF8000017
:102210006946034800F006F808BD000000100140C0
:10222000000801402DE9F04102460025002600206B
:1022300000230024002791F803C00CF00F0591F84B
:1022400003C00CF0100CBCF1000F03D091F802C0D9
:102250004CEA050591F800C0BCF1000F31D01468BC
:1022600000202BE04FF0010C0CFA00F3B1F800C095
:102270000CEA03069E4220D183004FF00F0C0CFAAB
:1022800003F7BC4305FA03FC4CEA040491F803C0CD
:10229000BCF1280F06D14FF0010C0CFA00FCC2F87B
:1022A00014C00AE091F803C0BCF1480F05D14FF00B
:1022B000010C0CFA00FCC2F810C0401C0828D1D355
:1022C0001460B1F800C0BCF1FF0F34DD5468002089
:1022D0002EE000F1080C4FF0010808FA0CF3B1F8F9
:1022E00000C00CEA03069E4221D183004FF00F0C80
:1022F0000CFA03F7BC4305FA03FC4CEA040491F81A
:1023000003C0BCF1280F05D100F1080C08FA0CF845
:10231000C2F8148091F803C0BCF1480F07D100F156
:10232000080C4FF0010808FA0CF8C2F81080401CA5
:102330000828CED35460BDE8F0810246002093689F
:102340000B400BB1012000E0002070470146C86837
:1023500080B270474161704701617047C16070474A
:102360000AB1016100E04161704700BFFEE7000073
:1023700008B501213C2000F031FA10208DF803004F
:1023800003208DF802004FF40070ADF8000069469C
:102390001648FFF747FF10208DF8030003208DF843
:1023A00002004FF40040ADF8000069460F48FFF707
:1023B00039FF10208DF8030003208DF802004FF440
:1023C0008070ADF8000069460948FFF72BFF102028
:1023D0008DF8030003208DF802004020ADF80000C6
:1023E00069460248FFF71EFF08BD0000000C0140CF
:1023F0000008014008B50121082000F0EFF94FF472
:10240000E140ADF8000048208DF8030003208DF86E
:10241000020069460148FFF705FF08BD000C0140B6
:1024200010B5002480214F48FFF787FF78B94E4848
:10243000007878B90F2000F004FE80214948FFF7AA
:102440007CFF00B9042401204749087002E0002005
:10245000454908704FF480514248FFF76EFF80B93C
:102460004248007880B90F2000F0EBFD4FF4805116
:102470003C48FFF762FF00B9012401203B49087086
:1024800002E00020394908704FF400513548FFF749
:1024900054FF50BB3648007880B90F2000F0D1FDC2
:1024A0004FF400512F48FFF748FF18B902240020CD
:1024B0003049086001202E4908701BE02D48006853
:1024C000401C2C4908600A2814D3084600683228AA
:1024D00001D9022000E0052026490968B1FBF0F28D
:1024E00000FB121030B9022404E0002020490870DB
:1024F000204908604FF480411A48FFF71EFF50BB87
:102500001D48007880B90F2000F09BFD4FF48041FA
:102510001448FFF712FF18B9032400201749086078
:102520000120154908701BE014480068401C13493D
:1025300008600A2814D308460068322801D902200E
:1025400000E005200D490968B1FBF0F200FB121014
:1025500030B9032404E000200749087007490860E7
:10256000204610BD000C01401F0000201C00002070
:102570001D000020200000201E000020240000205C
:1025800010B5012000F046F8022000F066FD10BDF5
:1025900010B5FFF723FE322000F05FFD382000F079
:1025A00039F80C2000F036F8062000F033F801204E
:1025B00000F030F8022000F050FD10BD2DE9F04190
:1025C00006460F4614463946304600F00CF8002502
:1025D00004E0605D00F04EF8681CC5B2605D002844
:1025E000F7D1BDE8F08170B504460D46012C06D147
:1025F000691EC9B241F0800000F00CF808E0022C1E
:1026000006D105F13F01C9B241F0800000F002F8A7
:1026100070BD000070B504464FF400511348FFF739
:1026200099FE4FF480411148FFF794FE204600F0D8
:102630005FF905460E48FFF789FE00F47F4040EA47
:10264000050631460A48FFF789FE4FF40041074866
:10265000FFF782FE012000F000FD4FF40041034827
:10266000FFF778FE012000F0F8FC70BD001001407B
:102670000008014070B504464FF400511348FFF7BD
:102680006BFE4FF480411148FFF764FE204600F0D6
:102690002FF905460E48FFF759FE00F47F4040EA47
:1026A000050631460A48FFF759FE4FF40041074836
:1026B000FFF752FE012000F0D0FC4FF40041034828
:1026C000FFF748FE012000F0C8FC70BD001001407B
:1026D0000008014000BFFEE77047000070B5002110
:1026E00000230F22C47804B3154C246804F4E0647A
:1026F000C4F5E064210AC1F10403CA40447804FA35
:1027000003F184781440214309010E4C0678A15549
:10271000047804F01F050124AC4005786D11AD006C
:1027200005F1E025C5F8004109E0047804F01F0533
:102730000124AC40044D0678761145F8264070BD62
:102740000CED00E000E400E080E100E0024901431C
:10275000024A1160704700000000FA050CED00E02D
:102760007047000001460020034A506820F44040B2
:1027700008435060704700000010024029B1064A2B
:1027800052690243044B5A6104E0034A526982438E
:10279000014B5A61704700000010024029B1064AFF
:1027A000D2690243044BDA6104E0034AD2698243EE
:1027B000014BDA61704700000010024029B1064A5F
:1027C00012690243044B1A6104E0034A126982430E
:1027D000014B1A61704700000010024029B1064AFF
:1027E00092690243044B9A6104E0034A926982436E
:1027F000014B9A61704700000010024029B1064A5F
:10280000D2680243044BDA6004E0034AD268824390
:10281000014BDA60704700000010024030B5002123
:102820000022002400232D4D6D6805F00C0121B11C
:10283000042905D0082923D105E0294D056022E0AF
:10284000274D05601FE0254D6D6805F47012234D7E
:102850006D6805F48034022505EB92421CB9214DC8
:10286000554305600BE01D4D6D6805F400351DB145
:102870001C4D5543056002E0194D5543056002E0CB
:10288000174D056000BF00BF144D6D6805F0F001E5
:102890000909154D6B5C0568DD4045600F4D6D689D
:1028A00005F4E061090A104D6B5C4568DD40856008
:1028B0000A4D6D6805F46051C90A0B4D6B5C4568A3
:1028C000DD40C560054D6D6805F44041890B074D3D
:1028D0006B5CC568B5FBF3F5056130BD00100240C7
:1028E00000127A0000093D000000002010000020C6
:1028F000010900F00F0241EA021000F0CC0189103A
:1029000000F0330241EA820000F0AA01491000F011
:10291000550241EA42007047704710B500F002F8D6
:1029200010BD00000CB500200190009033480068F5
:1029300040F480303149086000BF3048006800F43E
:10294000003000900198401C0190009818B901983F
:10295000B0F5A06FF1D12948006800F4003010B143
:102960000120009001E0002000900098012843D150
:102970002348006840F010002149086008460068BC
:1029800020F0030008600846006840F0020008607C
:102990001A48406819494860084640684860084637
:1029A000406840F4806048600846406820F47C102D
:1029B00048600846406840F4E810486008460068EF
:1029C00040F08070086000BF0C48006800F00070A4
:1029D0000028F9D00948406820F003000749486002
:1029E0000846406840F00200486000BF0348406865
:1029F00000F00C000828F9D10CBD000000100240C6
:102A0000002002407047000010B51348006840F0F5
:102A100001001149086008464068104908400E4905
:102A20004860084600680E4908400B49086008469F
:102A3000006820F4802008600846406820F4FE000A
:102A400048604FF41F008860FFF767FF4FF0006099
:102A50000449086010BD0000001002400000FFF8AB
:102A6000FFFFF6FE08ED00E010B50121054800F07B
:102A700052F828B10121034800F03EF802F038F87E
:102A800010BD0000000800407FB505460C464FF41D
:102A9000A060FFF75BFE01210420FFF77FFEADF889
:102AA0000850ADF804400020ADF80600ADF80A006B
:102AB00001A9104800F04AF801210E4800F01CF866
:102AC000012211460B4800F037F80021094800F0B8
:102AD00016F81E208DF8000001208DF8010000205E
:102AE0008DF8020001208DF803006846FFF7F6FD1F
:102AF0007FBD000000080040CA430282704721B138
:102B0000028842F00102028004E002884FF6FE7360
:102B10001A400280704730B502460020002300248E
:102B2000158A05EA0103958905EA010413B10CB180
:102B3000012000E0002030BD1AB183890B4383815E
:102B400002E083898B438381704700000022028862
:102B50001D4B98420ED01D4B98420BD0B0F1804FC8
:102B600008D01B4B984205D01A4B984202D01A4B02
:102B7000984204D14FF68F731A404B881A43174B73
:102B8000984207D0164B984204D04FF6FF431A40A4
:102B9000CB881A4302808B8883850B8803850A4B78
:102BA00098420BD0094B984208D00E4B984205D062
:102BB0000D4B984202D00D4B984201D10B7A0386FF
:102BC0000123838270470000002C01400034014043
:102BD0000004004000080040000C004000100040CD
:102BE0000014004000400140004401400048014002
:102BF00008B50020009040F22551094800F091F8F6
:102C000068B140F22551064800F015F8044800F07C
:102C100043F9C0B200900121684601F023FE08BDCF
:102C20000038014001F40072B2F5007F00D100BF0E
:102C3000CA430280704710B50022002340F66A1490
:102C4000A14200D100BF0A1201249440A3B2DC4388
:102C5000048010BD21B1828942F40052828104E0D7
:102C600082894DF6FF731A408281704710B5044681
:102C70002048844209D101218803FFF7BFFD0021CC
:102C80004FF48040FFF7BAFD32E01B48844209D17F
:102C900001214804FFF792FD00214FF40030FFF7B7
:102CA0008DFD25E01548844209D101218804FFF7F4
:102CB00085FD00214FF48020FFF780FD18E01048CB
:102CC000844209D10121C804FFF778FD00214FF4A7
:102CD0000020FFF773FD0BE00A48844208D1012170
:102CE0000805FFF76BFD00214FF48010FFF766FD2C
:102CF00010BD000000380140004400400048004082
:102D0000004C00400050004002460020B1F5007F1A
:102D100000D100BF13880B400BB1012000E0002060
:102D2000704770B50246002400230025002040F6BD
:102D30006A16B14200D100BFC1F3421501F01F0372
:102D4000012606FA03F3012D02D19689334006E0ED
:102D5000022D02D1168A334001E0968A33400C12CC
:102D6000012606FA04F41688344013B10CB1012090
:102D700000E0002070BDF0B50346002400260025C9
:102D8000002040F66A17B94200D100BF1846C1F3CF
:102D9000421401F01F06012707FA06F5012C01D1A4
:102DA0000C3004E0022C01D1103000E014301AB1D4
:102DB00007682F43076002E00768AF430760F0BD74
:102DC0002DE9F04786B005460E460024A24600BF16
:102DD000A1460027B08900B100BF2F462C8A4CF6CF
:102DE000FF700440F08804432C82AC894EF6F31047
:102DF0000440B08831890843718908430443AC8199
:102E0000AC8A4FF6FF400440B0890443AC8201A86D
:102E1000FFF704FD1F48874202D1DDF810A001E052
:102E2000DDF80CA0A88900F4004040B10AEBCA000C
:102E300000EB0A1031684900B0FBF1F807E00AEB3B
:102E4000CA0000EB0A1031688900B0FBF1F8642079
:102E5000B8FBF0F004012009642101FB1089A88966
:102E600000F4004040B1322000EBC900B0FBF1F0AB
:102E700000F00700044308E0322000EB0910642151
:102E8000B0FBF1F000F00F0004432C8106B0BDE868
:102E9000F08700000038014001468888C0F3080030
:102EA0007047C1F308028280704700BFFEE7000050
:102EB00010B586B00446012144F20400FFF78EFCF1
:102EC0004FF40070ADF8140018208DF8170003209F
:102ED0008DF8160005A91C48FFF7A4F94FF480608F
:102EE000ADF8140004208DF8170005A91648FFF767
:102EF00099F901940020ADF80800ADF80A00ADF88A
:102F00000C00ADF810000C20ADF80E0001A90F4820
:102F1000FFF756FF012240F225510C48FFF72BFF27
:102F200025208DF8000001208DF801008DF80200A9
:102F30008DF803006846FFF7D1FB01210348FFF736
:102F400089FE06B010BD00000008014000380140B5
:102F500010B586B004464FF4A060FFF7F7FB0121DF
:102F60008804FFF71BFC01210820FFF737FC2548E8
:102F7000FFF77CFE4FF48060ADF8140003208DF85D
:102F8000160018208DF8170005A91F48FFF74AF909
:102F90004FF40060ADF8140004208DF8170005A967
:102FA0001948FFF73FF901940020ADF80800ADF88B
:102FB0000A00ADF80C00ADF810000C20ADF80E00C2
:102FC00001A91048FFF7FCFE20210E48FFF72AFE5A
:102FD000012240F225510B48FFF7CDFE27208DF846
:102FE000000001208DF801008DF802008DF803002B
:102FF0006846FFF773FB01210248FFF72BFE06B07E
:1030000010BD000000480040000C0140490050EA9B
:10301000C12018BF04204A0D18BF40F0010040F243
:10302000FF72B2EB515F08BF40F00200012808BFF9
:103030000520704730380A2801D20120704700204F
:10304000704700B5034603E04FF47A7000F011F8C2
:10305000181EA3F10103F7D100BD10B5044603E02B
:103060004FF4C87000F01CF8201EA4F10104F7D141
:1030700010BD00EBC001C9004FF0E02251610021FA
:1030800091610521116100BF4FF0E021096901F450
:1030900080310029F8D004214FF0E02211617047FF
:1030A00000EBC00007E000BF00BF00BF00BF00BFD3
:1030B00000BF00BF00BF011EA0F10100F3D17047A7
:1030C00001B581B000200090694601AA50780870CF
:1030D00010784870BDF800000CBD0146080601F4E8
:1030E0007F4240EA022001F47F0240EA122040EAD7
:1030F00011607047024612B102F0070028B9082992
:1031000001D8002070470120FCE702F00700C0F161
:103110000800884201D30020F4E70120F2E730B52F
:1031200002460B460021002400250AB9481E30BD86
:10313000002108E0545C581A401E155C5554581A7A
:10314000401E1454491CB1EB530FF3D30020EEE79B
:103150002DE9F04104460D460027002604B135B99B
:1031600063A002F06BFE4FF0FF30BDE8F08100F08D
:10317000D5FB064628782178884203D066A002F065
:103180005DFE012768786178884203D067A002F06D
:1031900055FE0127A878A178884203D068A002F0E4
:1031A0004DFE0127D5F80300D4F80310884203D060
:1031B00068A002F043FE0127D5F80700D4F80710F5
:1031C000884203D06AA002F039FE0127D5F80B002F
:1031D000D4F80B10884203D06BA002F02FFE012719
:1031E000D5F80F00D4F80F10884203D06CA002F07D
:1031F00025FE0127D5F81300D4F81310884203D018
:103200006DA002F01BFE0127D5F81700D4F81710A7
:10321000884203D06EA002F011FE0127D5F81B00F2
:10322000D4F81B10884203D070A002F007FE0127DB
:10323000D5F81F00D4F81F10884203D072A002F006
:10324000FDFD0127D5F82300D4F82310884203D0D0
:1032500073A002F0F3FD0127D5F82700D4F827105A
:1032600088420AD074480068301A41F2707188426E
:1032700003D372A002F0E2FD0127D5F82B00D4F8A9
:103280002B1088420AD06C480068301A41F27071E5
:10329000884203D36EA002F0D1FD0127D5F82F009C
:1032A000D4F82F1088420AD063480068301A41F2DF
:1032B0007071884203D36BA002F0C0FD0127D5F8DE
:1032C0003300D4F8331088420AD05B480068301AC3
:1032D00041F27071884203D368A002F0AFFD01276C
:1032E000012F03D100F01AFB5349086038463CE730
:1032F00067697A436865636B5265706F72742045C5
:1033000072726F72202C20496C6C6567616C205062
:103310006172616D0A00000076616C756553504BF7
:10332000204368616E6765640A00000076616C7511
:10333000654A44204368616E6765640A00000000C6
:1033400076616C75654C4544204368616E676564C1
:103350000A00000076616C75654D6F646542757496
:10336000746F6E204368616E6765640A0000000038
:1033700076616C756554656D705448204368616E64
:103380006765640A0000000076616C756554656DC0
:10339000704C48204368616E6765640A0000000055
:1033A00076616C756548756D694854204368616E37
:1033B0006765640A0000000076616C756548756D8C
:1033C000694C54204368616E6765640A0000000020
:1033D00076616C7565536F696C48756D69485420EA
:1033E0004368616E6765640A0000000076616C7571
:1033F00065536F696C48756D694C54204368616E04
:103400006765640A0000000076616C75654C696749
:1034100068744854204368616E6765640A00000060
:1034200076616C75654C696768744C5420436861BB
:103430006E6765640A0000004000002076616C75CC
:103440006574656D70204368616E6765640A00008D
:1034500076616C756548756D69204368616E676556
:10346000640A000076616C7565536F696C48756D10
:1034700069204368616E6765640A000076616C7557
:10348000654C69676874204368616E6765640A000B
:10349000F8B505460C4616460DB104B12EB981A00B
:1034A00002F0CCFC4FF0FF30F8BD02212846FFF7B8
:1034B00036FEB0F1FF3F05D185A002F0BFFC4FF012
:1034C000FF30F1E7287800F0010098B1112122784F
:1034D000601C81542078401C20700120AB1C0246E7
:1034E00000210090084601F0A1FA08B1012000E097
:1034F000002030702878C0F3400098B11221227863
:10350000601C81542078401C20700120AB1C0246B6
:1035100001460090002001F089FA08B1012000E086
:10352000002070702878C0F3800098B113212278B1
:10353000601C81542078401C20700120AB1C024686
:1035400002210090002001F071FA08B1012000E092
:103550000020B0702878C0F3C00080B11421227818
:10356000601C81542078401C20700120AB1C024656
:1035700003210090002001F059FAC6F803002878D2
:10358000C0F3001068B115212278601C81542078A6
:10359000401C2070EA780021012001F0B1FAC6F841
:1035A00007002878C0F3401068B116212278601C0B
:1035B00081542078401C20702A790021012001F0DC
:1035C0009FFAC6F80B002878C0F3801068B1172165
:1035D0002278601C81542078401C20706A79002178
:1035E000012001F08DFAC6F80F0028780121B1EB17
:1035F000D01F0DD118212278601C81542078401CE6
:103600002070AA790021012001F07AFAC6F813008F
:10361000687800F0010068B119212278601C81549B
:103620002078401C2070EA790021012001F068FA1E
:10363000C6F817006878C0F3400068B11A212278F4
:10364000601C81542078401C20702A7A00210120BF
:1036500001F056FAC6F81B006878C0F3800068B124
:103660001B212278601C81542078401C20706A7ACB
:103670000021012001F044FAC6F81F006878C0F369
:10368000C00068B11C212278601C81542078401C45
:103690002070AA7A0021012001F032FAC6F8230036
:1036A000002001E767697A44617461506F696E7444
:1036B000324576656E74204572726F72202C2049F7
:1036C0006C6C6567616C20506172616D0A0000006E
:1036D00067697A427974654F726465724578636888
:1036E000616E6765204572726F720A0038B50446D4
:1036F0000D4604B12DB941A002F0A0FB4FF0FF3000
:1037000038BD0020287020782B460122002100902F
:10371000084601F04BF960782B46012211460090D3
:10372000002001F043F9A0782B46012202210090ED
:10373000002001F03BF9D4F80300022805D33BA098
:1037400002F07CFB4FF0FF30DAE7D4F803002B46A1
:10375000012203210090002001F028F901212846D0
:10376000FFF7DDFC54F8072F0021012001F0CEF90E
:10377000687062680021012001F0C8F9A870A26891
:103780000021012001F0C2F9E870E2680021012067
:1037900001F0BCF9287122690021012001F0B6F97D
:1037A000687162690021012001F0B0F9A871A26975
:1037B0000021012001F0AAF9E871E269002101204D
:1037C00001F0A4F92872226A0021012001F09EF97B
:1037D0006872626A0021012001F098F9A872A26A59
:1037E0000021012001F092F9E872E26AE41F002151
:1037F000012001F08BF92873002081E767697A4482
:10380000617461506F696E7473325265706F727457
:1038100044617461204572726F72202C20496C6C77
:103820006567616C20506172616D0A005B455252A0
:103830004F525D2076616C75654D6F64654275749D
:10384000746F6E204572726F72202C20496C6C650B
:1038500067616C204F766572737465700A000000B2
:1038600070B5054600F05AF804461D492846FFF792
:103870006FFC012813D11BA002F0E0FA184944396B
:103880002846FFF733FF28B90D2215494439042093
:1038900001F022F8372229461148FCF774FE174838
:1038A000B4FBF0F100FB1140C8B915480068A04214
:1038B00015D014A002F0C2FA094944392846FFF78E
:1038C00015FF28B90D2206494439042001F004F8F7
:1038D000372229460248FCF756FE0948046070BDAD
:1038E0001D0A00206368616E6765642C2072657034
:1038F0006F727420646174610A000000C0270900BF
:1039000044000020496E666F3A20363030532072F2
:1039100065706F727420646174610A000148006808
:10392000704700003C00002010B5174890F8910047
:10393000012827D1144890F8900002281DDAFFF7DB
:10394000EDFF1149D1F8D510401AC8281AD9FFF750
:10395000E5FF04460C4890F89030D0F8D520214679
:103960000AA002F06BFA00F0D5FE074890F890002C
:10397000401C054981F8900004E04921024890303C
:10398000FCF79AFE10BD0000880800205761726E97
:10399000696E673A67697A50726F746F636F6C52C1
:1039A0006573656E6444617461202564202564201C
:1039B00025640A003EB50446002524B913A002F090
:1039C0003DFA681E3EBD20680090606801909DF839
:1039D0000400401CC0B28DF804000520FFF770FB06
:1039E000ADF802000921684600F0D2FE8DF808000B
:1039F0000921684602F04AFA0546002D03DA2946F5
:103A00000DA002F01BFA2846DCE700004552523AAE
:103A10002067697A50726F746F636F6C436F6D6D5E
:103A20006F6E41636B206461746120697320656D02
:103A3000707479200A0000004552523A2075617274
:103A400074207772697465206572726F72202564C4
:103A5000200A0000FEB504460E46002524B914A035
:103A600002F0ECF9681EFEBD684600F001FA122073
:103A70008DF8040060798DF805000620FFF720FB23
:103A8000ADF802008DF808600A21684600F080FE5B
:103A90008DF809000A21684602F0F8F90546002D64
:103AA00003DA29460DA002F0C9F92846DBE7000039
:103AB00067697A50726F746F636F6C4572726F7260
:103AC000436D64204572726F72202C20496C6C65C6
:103AD00067616C20506172616D0A00004552523A74
:103AE0002075617274207772697465206572726FD7
:103AF00072202564200A000030B59DB004460025E0
:103B00002CB92BA002F09AF9681E1DB030BD684692
:103B100000F0AEF902208DF8040060798DF8050000
:103B20002FA103C9CDE9020130A103C9CDE90401E8
:103B300031A103C9CDE9080132A103C9CDE90601CC
:103B4000202233A10AA8FCF763FD202239A10DF140
:103B50005200FCF718FD0020CDF84A00CDF84E00C9
:103B60009DF851008DF851009DF8510040F0020180
:103B70008DF851100020FFF7A3FAADF848006F2030
:103B8000FFF79EFAADF802007321684600F000FED0
:103B90008DF872007321684602F078F90546002D11
:103BA00003DA29462CA002F049F92846ADE70000C7
:103BB00067697A50726F746F636F6C4765744465A0
:103BC00076696365496E666F204572726F72202C4C
:103BD00020496C6C6567616C20506172616D0A00F0
:103BE0003030303030303034000000003030303091
:103BF000303030320000000030333033303030307D
:103C0000000000003033303130313030000000002F
:103C100038666263323532636336306334616462BE
:103C200038383035353164373562313339333935E9
:103C3000000000006139616335383639616636311C
:103C4000346361363836353066633264383464350F
:103C500061366538000000004552523A20756172A5
:103C600074207772697465206572726F72202564A2
:103C7000200A00002DE9FE4F80460E4617464FF001
:103C8000000B0020029081468246002534460090B9
:103C9000B8F1000F01D006B137B955A002F0CEF847
:103CA0004FF0FF30BDE8FE8F404601F0EBFF1FFAFA
:103CB00080FABAF1000F02D14FF0FF30F2E74FF077
:103CC000000969E0012201A9404602F018F8834684
:103CD000BBF1000F5ED052480078FF281FD19DF83D
:103CE0000400FF281BD14F48007848B9FF202070FE
:103CF000607002204C49088001204A49087040E069
:103D00004948008804283CDD47480088A84238D04C
:103D1000FF202070607002204349088031E0404855
:103D20000078FF2803D19DF80400552829D03D488C
:103D30000078012825D19DF804003B49098860548A
:103D400039480088401C3849088008460088042803
:103D500017DD0094009C6088FFF7B2F9001D85B262
:103D6000412D01D2042D07DC00202E4908702E4978
:103D700008802EA002F062F82B480088A84200D1EB
:103D80000CE09DF804002649087038480078401C73
:103D90003649087009F10109D14593DB00BF22487B
:103DA0000088042822DD20480088A8421ED11E4831
:103DB0000188204600F0ECFC02901B480088401E61
:103DC000215C029881420AD13D800020154908708B
:103DD00015490880254908701149087062E70020DC
:103DE0001049087010490880801E5BE7012059E7E0
:103DF00067697A50726F746F636F6C4765744F6E4A
:103E0000655061636B6574204572726F72202C205F
:103E1000496C6C6567616C20506172616D0A0000CD
:103E20004C000020480000204A0000204552523A31
:103E30007468652064617461206C656E67746820C5
:103E4000697320746F6F206C6F6E67206F722074BF
:103E50006F6F20736D616C6C2C2077696C6C2061C6
:103E600062616E646F6E200A000000004D00002049
:103E700010B504462CB907A001F0E0FF4FF0FF3069
:103E800010BD002020606060FF2020706070002066
:103E9000F6E700004552523A2067697A50726F7413
:103EA0006F636F6C48656164496E69742068656111
:103EB0006420697320656D707479200A0000000029
:103EC0002DE9F04FA3B006468B46174699460020D1
:103ED000229082468046002501ACBBF1000F06D13E
:103EE00031A001F0ABFF681E23B0BDE8F08FB9F13F
:103EF000010F06D196F8088008F10600384485B213
:103F000001E0781D85B22B46424639462CA001F0CF
:103F100095FFFF2004F8010B04F8010B281204F8A8
:103F2000010B04F8015B3079401C04F8010B707937
:103F300004F8010B002004F8010B04F8019B4FF07A
:103F4000080AB9F1010F0DD104F8018B0AF1010A39
:103F500001A901EB0A00424606F10901FCF713FB37
:103F6000C244444437B101A901EB0A003A4659461C
:103F7000FCF709FB291D01A800F00AFC0146E81C1A
:103F800001AA1154291D01A801F080FF2290229856
:103F9000002806DA14A0229901F050FF6FF001000A
:103FA000A2E70020A0E700005B4552525D2020649C
:103FB000617461204973204E756C6C200A0000000A
:103FC0006C656E203D202564202C20734469644C70
:103FD000656E203D202564202C646174615F6C65F2
:103FE0006E203D2025640A00756172742077726925
:103FF0007465206572726F72202564200A000000CB
:104000002DE9F04780460C4617461D46089E94F859
:1040100000900CB105B136B92FA001F00FFF4FF0A1
:10402000FF30BDE8F087B8F1000F53D11E213648AC
:10403000FCF720FBB9F1010F06D0B9F1020F11D046
:10404000B9F1050F44D123E02F4A85322E49601C77
:10405000FFF71EFA01202C49D939087000250020ED
:10406000306036E02849783101F14400FFF73EFB2B
:1040700050B90D2224497831681CFCF784FA0320DA
:1040800028700E20306002E04FF0FF30C9E720E0DA
:104090007A1E611C1C489738FCF775FA781E1A497D
:1040A000D939C1F8840010211748D93890F8D9209F
:1040B000DA308154DA3890F8D900401C1249D939E5
:1040C00081F8D9000320087000250020306000E04E
:1040D00000BF00BF0020A4E767697A50726F746F59
:1040E000636F6C49737375656450726F6365737346
:1040F000204572726F72202C20496C6C6567616C70
:1041000020506172616D0A006109002070B504469B
:1041100025462CB90EA001F091FE4FF0FF3070BD86
:10412000412205F108010E48FCF72DFA0F210D4838
:1041300090F8332100F59A7081540A4890F83301C1
:10414000401C084981F83301052008700020E6E78B
:104150004E545020697320656D707479200A0000F8
:10416000640A00208808002010B504462CB9CAA0B3
:1041700001F064FE4FF0FF3010BD2089FEF7A0FF74
:104180002081D1480078C0F38000217AC1F38001FA
:10419000884256D0207AC0F38000002829D0207AA7
:1041A00000F0010078B10021C84890F8F720F830FD
:1041B0008154F83890F8F700401CC44981F8F700A2
:1041C000C3A001F03BFE207AC0F34000002838D0A5
:1041D0000121BE4890F8F720F8308154F83890F863
:1041E000F700401CB94981F8F700C1A001F026FE94
:1041F00027E0207A00F0010078B10021B34890F860
:10420000F720F8308154F83890F8F700401CAF4997
:1042100081F8F700AEA001F011FE207AC0F3400053
:1042200078B10221A94890F8F720F8308154F83885
:1042300090F8F700401CA54981F8F700B3A001F001
:10424000FDFDA1480078C0F3C000217AC1F3C00190
:1042500088422CD0207AC1089B48007861F3C300C3
:1042600099490870207AC0F3C00080B103219748B3
:1042700090F8F720F8308154F83890F8F700401C97
:10428000924981F8F700A8A001F0D8FD0FE00421C1
:104290008E4890F8F720F8308154F83890F8F700FD
:1042A000401C8A4981F8F700A7A001F0C7FD8648A5
:1042B0000078C0F30010217AC1F3001188422CD09D
:1042C000207A01098048007861F304107E49087063
:1042D000207AC0F3001080B105217C4890F8F720C7
:1042E000F8308154F83890F8F700401C774981F88D
:1042F000F7009DA001F0A2FD0FE00621734890F8A1
:10430000F720F8308154F83890F8F700401C6F49D6
:1043100081F8F7009CA001F091FD6B480078C0F394
:104320004010217AC1F3401188422CD0207A4109F3
:104330006548007861F3451063490870207AC0F33E
:10434000401080B10721614890F8F720F83081547F
:10435000F83890F8F700401C5C4981F8F70093A00A
:1043600001F06CFD0FE00821584890F8F720F83074
:104370008154F83890F8F700401C544981F8F70050
:1043800091A001F05BFD50484078C0F3C001607A15
:10439000C0F3C00081422CD0607AC1084A484078FE
:1043A00061F3C30048494870607AC0F3C00080B12F
:1043B0000B21464890F8F720F8308154F83890F8EF
:1043C000F700401C414981F8F70087A001F036FD55
:1043D0000FE00C213D4890F8F720F8308154F83870
:1043E00090F8F700401C394981F8F70085A001F0EA
:1043F00025FD35484078C0F30011607AC0F3001005
:1044000081422CD0607A01092F48407861F3041072
:104410002D494870607AC0F3001080B109212B4803
:1044200090F8F720F8308154F83890F8F700401CE5
:10443000264981F8F7007BA001F000FD0FE00A217A
:10444000224890F8F720F8308154F83890F8F700B7
:10445000401C1E4981F8F70079A001F0EFFC0D2106
:104460001A4890F8F720F8308154F83890F8F7009F
:10447000401C164981F8F700607A00F0070081F8C7
:10448000CC01084690F8CC1174A001F0D7FC0220B2
:104490000E49087000206FE667697A50726F746F7A
:1044A000636F6C4D6F64756C6553746174757320C4
:1044B0004572726F72202C20496C6C6567616C20AC
:1044C000506172616D0A00004E00002088080020D3
:1044D0004F6E426F617264696E673A20536F667403
:1044E0004150206F7220576562206D6F64650A002D
:1044F0004F6E426F617264696E673A204169724C17
:10450000696E6B206D6F64650A0000004F6E426F2C
:10451000617264696E673A2053746174696F6E20CA
:104520006D6F64650A000000576946692073746105
:104530007475733A20696E2062696E64696E6720D3
:104540006D6F64650A0000005769466920737461E5
:104550007475733A206F75742062696E64696E6752
:10456000206D6F64650A00005769466920737461A5
:104570007475733A20636F6E6E6563746564207240
:104580006F757465720A000057694669207374611B
:104590007475733A20646973636F6E6E65637465D6
:1045A0006420726F757465720A000000576946696D
:1045B000207374617475733A20636F6E6E656374F3
:1045C0006564206D326D0A00576946692073746115
:1045D0007475733A20646973636F6E6E6563746596
:1045E00064206D326D0A000057694669207374615A
:1045F0007475733A2061707020636F6E6E656374BA
:104600000A00000057694669207374617475733A33
:10461000206E6F2061707020636F6E6E6563740A28
:104620000000000057694669207374617475733A1D
:1046300020696E2074657374206D6F64650A0000D4
:1046400057694669207374617475733A206F757485
:104650002074657374206D6F64650A00525353496A
:10466000206973202564200A0000000070B504460C
:1046700025462CB919A001F0E1FB4FF0FF3070BDC9
:104680001B48A9680160A9898180A97B8171A0F577
:10469000E870D5F80F10C0F8D8110146B1F8D00174
:1046A000FEF70EFD1349A1F8D001D1F8D801FEF7AD
:1046B00014FD1049C1F8D8010E210E4890F81521BB
:1046C00000F58B7081540B4890F81501401C094986
:1046D00081F81501042008700020D0E74552523AB5
:1046E000204E545020697320656D707479200A0043
:1046F000580A00208808002010B5FFF70FF904467B
:1047000000BFFFF70BF9001BB0F5167FF9D901F0D8
:10471000A1FA10BD10B500240E4890F8910000B920
:1047200010BD0DA001F08AFB0A48B0F8D3109230FA
:1047300001F0ACFB04460748B0F8D300A04202D019
:104740000DA001F07BFBFFF7E9F80249C1F8D500A5
:1047500000BFE5E7880800205761726E696E673A0E
:104760002074696D656F75742C20726573656E6455
:104770002064617461200A004552523A20726573C8
:10478000656E642064617461206572726F720A00E4
:1047900010B502460024002302B109B9002010BD63
:1047A000022303E0D05C2044C4B25B1C481E984244
:1047B000F8D82046F3E7000070B504460D462CB942
:1047C0000FA001F03BFB4FF0FF3070BD49211248B4
:1047D000FBF772FF2A4621460F48801CFBF7D3FEE9
:1047E0000D489038A0F8D350012180F89110FFF7C0
:1047F00095F809499039C1F8D5000020E5E7000097
:104800004552523A206461746120697320656D706D
:104810007479200A000000001809002070B50446D1
:10482000094D2CB909A001F009FB4FF0FF3070BD14
:104830002879401C2179884204D149210248801EF0
:10484000FBF73AFF0020F2E71A0900204552523ADE
:10485000206461746120697320656D707479200A29
:104860000000000070B504460D46002624B90AA0D9
:1048700001F0E4FA701E70BD2A4621460E4801F090
:104880008FFA0646AE4205D00CA001F0D7FA4FF0E1
:10489000FF30F0E73046EEE74552523A2067697A3A
:1048A0005075744461746120627566206973206577
:1048B0006D707479200A0000A80A00204552523A0F
:1048C000204661696C656420746F2072625772695A
:1048D0007465200A00000000F0B587B005460E465A
:1048E000174600242EB91FA001F0A8FA601E07B0D9
:1048F000F0BD01A8FFF7BCFA05208DF80800234899
:1049000090F88810D0F88800401C204AC2F888002F
:10491000C8B28DF809008DF80C501320FEF7D0FBBB
:10492000ADF806003A4631460DF10D00FBF72BFEBF
:10493000172101A8FFF72CFF8DF81A00172101A8F5
:1049400001F0A4FA0446002C06DA214610A001F07A
:1049500075FA6FF00100CAE7172101A8FFF72CFFD5
:104960002046C4E767697A5265706F727444617457
:1049700061204572726F72202C20496C6C656761F2
:104980006C20506172616D0A0000000088080020F0
:104990004552523A207561727420777269746520AD
:1049A0006572726F72202564200A00002DE9F047BD
:1049B00004460D461746089E4FF00009CA46C846F1
:1049C0001BB94FF0FF30BDE8F08739462846FEF7A7
:1049D00091FB8046B8F1000F07D1185D05F0070183
:1049E00006FA01F1084318551EE0B8F1010F1BD17A
:1049F000F0B205F00701C1F1080140FA01F905F034
:104A00000700C0F10801FF20084100EA060A601C07
:104A1000185C40EA0900611C5854185D05F0070154
:104A20000AFA01F1084318550020CCE72DE9F04FB0
:104A30008FB005460C4616469946189F4FF0000A5F
:104A4000D34600200E908046B9F1000F00D027B960
:104A50004FF0FF300FB0BDE8F08F3A46494601A84D
:104A6000FBF791FD012F09D9394601A8FEF757FB45
:104A7000B0F1FF3F02D14FF0FF30EBE73146204667
:104A8000FEF738FB8246BAF1000F0CD101A8405D59
:104A900004F007010841C6F10802FF211141084056
:104AA00040EA080821E0BAF1010F1ED101A9681CF3
:104AB000085C04F00701C1F10801711AC1F1080294
:104AC000FF21114100EA010B01A8405D04F007013C
:104AD00008410E9004F00700C0F108010BFA01F044
:104AE00040EA08080E9848EA00084046B2E700008D
:104AF00002480068401C0149086070473C000020E3
:104B000010B50346002002FB031010BD10B503468C
:104B10000020541AB4FBF3F010BD00002DE9FF5F34
:104B200007460E4693464FF000083446B1463546D8
:104B3000B24607B126B94FF0FF3004B0BDE8F09F90
:104B40004FF000082AE1781C10F808001D2876D2E2
:104B5000DFE800F0F2F3F47575F5F6F7F8757575A2
:104B600075F9E9E8FF0F22354865768696A6B6C640
:104B7000D60020788C490870084601788BA001F097
:104B80005DF989480078012802D18D49087002E05A
:104B900000208B490870FCE0607883494870084623
:104BA000417888A001F04AF97F484078012802D175
:104BB0008949087002E0002087490870E9E0A07880
:104BC000794988700846817884A001F037F97648E1
:104BD0008078012802D18649087002E000208449CB
:104BE0000870D6E0D4F803006F49C1F80300084606
:104BF000D0F803107FA001F021F96B48D0F8030032
:104C000010B1012808D103E000208149087004E0B8
:104C100001207F49087000E000BF00BFB9E0D4F870
:104C200007006149C1F807000846D0F8071079A0CD
:104C300001F004F95C48C0797C490870A9E0A7E05C
:104C4000D4F80B005849C1F80B000846D0F80B10F7
:104C500077A001F0F3F85448C07A7B49087098E0D7
:104C6000D4F80F005049C1F80F000846D0F80F10D3
:104C700076A001F0E3F84C48C07B7A49087088E0E0
:104C8000D4F813004849C1F813000846D0F81310AF
:104C900075A001F0D3F84448C07C7949087078E0E9
:104CA000D4F817004049C1F817000846D0F817108B
:104CB00074A001F0C3F83C48C07D7949087068E0F1
:104CC000D4F81B003849C1F81B000846D0F81B1067
:104CD00074A001F0B3F83448C07E7949087058E0F8
:104CE000D4F81F003049C1F81F000846D0F81F1043
:104CF00074A001F0A3F82C48C07F7849087048E000
:104D0000D4F823002849C1F823000846D0F823101E
:104D100073A001F093F8244890F8230076490870B6
:104D200037E016E028E018E00DE00BE009E007E0CE
:104D300005E003E001E0FFE72BE02AE029E028E0BE
:104D400027E026E025E099F800106CA001F076F845
:104D50001FE06DA001F072F81BE0A9796A792B7948
:104D6000A868CDE90032CDE90210EB78AA7829884D
:104D70006AA001F063F80CE073A001F05FF877A07F
:104D800001F05CF89AF8001078A001F057F800E004
:104D900000BF00BF08F1010000F0FF08387840456F
:104DA0003FF7D1AE0020C8E6500800204576743A9F
:104DB000204556454E545F53504B202564200A0031
:104DC0002C0000204576743A204556454E545F4AE3
:104DD00044202564200A00002D0000204576743A06
:104DE000204556454E545F4C4544202564200A001A
:104DF0002E0000204576743A204556454E545F4DAE
:104E00006F6465427574746F6E2025640A0000003B
:104E1000390000204576743A4556454E545F546536
:104E20006D7054482025640A000000002F00002007
:104E30004576743A4556454E545F54656D704C48FE
:104E40002025640A00000000300000204576743AF6
:104E50004556454E545F48756D6948542025640A8F
:104E600000000000310000204576743A4556454E5A
:104E7000545F48756D694C542025640A0000000099
:104E8000320000204576743A4556454E545F536FC4
:104E9000696C48756D6948542025640A000000005B
:104EA000330000204576743A4556454E545F536FA3
:104EB000696C48756D694C542025640A0000000037
:104EC000340000204576743A4556454E545F4C698F
:104ED00067687448542025640A00000035000020EB
:104EE0004576743A4556454E545F4C696768744C34
:104EF000542025640A000000360000205253534914
:104F00002025640A000000005452414E5350415283
:104F1000454E545F44415441200A000057494649D8
:104F20005F4E5450203A205B25642D25642D256466
:104F300020253032643A253032643A253032645DBF
:104F40005B25645D200A00004D4F44554C452049C7
:104F50004E464F202E2E2E0A0000000057494620B4
:104F60004D4F44554C45202E2E2E0A006D6F647512
:104F70006C6554797065203A205B25645D200A00D9
:104F80002DE9F041A4B005460026002002900190D2
:104F900000248046002735B982A000F04FFF601E34
:104FA00024B0BDE8F081FEF7BFFC02AA874988481B
:104FB000FEF760FE0646002E71D186A000F03EFF8F
:104FC000824C20790F284FD00ADC0E2873D2DFE8FC
:104FD00000F07216721A7272433872724472453C53
:104FE000182852D006DC112847D0142846D016289D
:104FF00061D134E0222854D02A285CD130E0204608
:10500000FEF77AFD5FE0E279A17977A000F016FF64
:1050100001A8009007F10900BDF808301A1A6B4882
:105020000830C11903AB4046FEF7EAFF40B9E37907
:1050300003A92046019AFEF743FF6FA000F0FEFE91
:1050400041E02046FEF7B6FC3DE02046FEF7B2FC0C
:105050002046FFF789F836E000BF00BF00BF00BF61
:105060002046FFF7DBFB2EE02046FEF7A3FC65A001
:1050700000F0E4FEFFF740FB25E024E02046FFF7C8
:10508000CDFB65A000F0DAFE1DE02046FFF7C6FB71
:105090002046FFF7EBFA68A000F0D0FE13E013E023
:1050A00009E02046FFF7BAFB2046FFF72FF868A07B
:1050B00000F0C4FE07E002212046FEF7CBFC6BA007
:1050C00000F0BCFE00BF0DE016F1020F0AD13F4C0C
:1050D00001212046FEF7BEFC6AA000F0AFFE6FF093
:1050E00001005DE73948401E0078062853D2DFE80A
:1050F00000F052031425314100203449491E087044
:10510000372201F5AF71A1F18500FFF707FD1E21E0
:105110002E48D830FBF7AEFA3EE000202B49491E5E
:105120000870012201F5E671A1F1D500FFF7F6FC48
:105130001E212648F630FBF79DFA2DE0002023497A
:10514000491E087008464231D0F88420D930FFF754
:10515000E5FC21E000201D49491E08700C2201F5E4
:10516000E871A1F1BB00FFF7D9FC1E214B48FBF70A
:1051700081FA11E000201549491E0870412201F50D
:10518000EE71A1F1A900FFF7C9FC412143481E308F
:10519000FBF770FA00E000BF00BF2846FEF760FB97
:1051A0000020FDE647697A7769747348616E646C24
:1051B00065204572726F72202C20496C6C656761A6
:1051C0006C20506172616D0A0000000089080020A7
:1051D000A80A0020476574204F6E65205061636BFC
:1051E0006574210A00000000666C61672025782044
:1051F0002578200A0000000041636B44617461203F
:105200003A200A007265706F72743A4D43552072ED
:1052100065626F6F74210A0041636B2050524F44E6
:10522000554354494F4E5F4D4F444520737563635A
:10523000657373200A00000041636B204745545F8B
:105240005554542073756363657373200A0000001E
:1052500041636B204745545F4D6F64756C652073E7
:10526000756363657373200A000000004552523A6B
:1052700020636D6420636F6465206572726F7221B4
:105280000A0000004552523A20636865636B207340
:10529000756D206572726F72210A00009D090020F1
:1052A00010B582200A4908600A48C860084600F024
:1052B0001BFD18B908A000F0C1FD02E00BA000F032
:1052C000BDFD4FF408710E48FBF7F6F910BD000064
:1052D000A80A0020B80A00207262437265617465F2
:1052E0002053756363657373200A00007262437212
:1052F00065617465204661696C64200A00000000E5
:105300008808002030B587B005460024062D7DD2E0
:10531000DFE805F00330567DAAD701A8FEF7A8FD07
:105320000B208DF80800814890F88810D0F888008C
:10533000401C7E4AC2F88800C8B28DF809000520DA
:10534000FDF7BEFEADF80600092101A8FFF720FA1F
:105350008DF80C00092101A800F098FD0446002CEE
:1053600003DA214672A000F069FD092101A8FFF7C8
:1053700023FAD7E004A8FEF77BFD09208DF814007E
:1053800007208DF815008DF818500620FDF798FEBF
:10539000ADF812000A2104A8FFF7FAF98DF81900F8
:1053A0000A2104A800F072FD0446002C03DA21460D
:1053B0005FA000F043FD0A2104A8FFF7FDF9B1E06A
:1053C00004A8FEF755FD09208DF8140007208DF87C
:1053D00015008DF818500620FDF772FEADF812008A
:1053E0000A2104A8FFF7D4F98DF819000A2104A8AE
:1053F00000F04CFD0446002C03DA21464CA000F0DE
:105400001DFD0A2104A8FFF7D7F98BE086E001A86B
:10541000FEF72EFD13208DF80800444890F8881000
:10542000D0F88800401C414AC2F88800C8B28DF804
:1054300009000520FDF744FEADF80600092101A88A
:10544000FFF7A6F98DF80C00092101A800F01EFD58
:105450000446002C03DA214635A000F0EFFC0921B8
:1054600001A8FFF7A9F95DE001A8FEF701FD1520ED
:105470008DF808002D4890F88810D0F88800401C5E
:105480002A4AC2F88800C8B28DF809000520FDF745
:1054900017FEADF80600092101A8FFF779F98DF88C
:1054A0000C00092101A800F0F1FC0446002C03DAED
:1054B00021461FA000F0C2FC092101A8FFF77CF9DA
:1054C00030E001A8FEF7D4FC29208DF80800174829
:1054D00090F88810D0F88800401C144AC2F8880060
:1054E000C8B28DF809000520FDF7EAFDADF8060009
:1054F000092101A8FFF74CF98DF80C00092101A83A
:1055000000F0C4FC0446002C03DA214608A000F099
:1055100095FC092101A8FFF74FF903E00BA000F06B
:105520008DFC00BF00BF204607B030BD88080020BA
:105530004552523A20756172742077726974652001
:105540006572726F72202564200A00004552523A3B
:10555000204366674D6F6465206572726F72210A21
:10556000000000008AB0FDF713F8FCF701FFFCF71C
:1055700041FFFCF749FDFCF791FC4FF41650FDF795
:1055800097FC4FF41650FDF7E3FC472140F2E7305B
:10559000FDF77AFA0121FE48FDF7B1FAFDA20121DB
:1055A0000846FDF70BF800F033FD4FF49670FDF759
:1055B00048FDFFF775FE4FF49670FDF742FD0120A0
:1055C000FFF7A0FEFCF7DCFF1DE3F749F748FCF707
:1055D00094FDF748048845886420604340F6FF71D5
:1055E00090FBF1F0C0F16400F24908706420684358
:1055F00040F6FF7190FBF1F0C0F16400EE490870D5
:10560000FCF70EFF0646012E0ED0022E25D0032EEB
:105610006FD0042E6ED1E948007808B9012000E06F
:105620000020E6490870FDE0E4480078012806D132
:10563000E348007880F00100E14908700CE0E1489F
:105640000078401C092190FBF1F201FB1200DD49BA
:1056500008700020DC490870E4E0D8480078012890
:1056600006D1DA48007880F00100D849087066E079
:10567000D4480078092860D2DFE800F05F050F1BEE
:1056800025313D495300D2480078642804DAD048D7
:105690000078401CCE49087050E0CE480078CC49D4
:1056A0000978884204DACB480078401CC949087060
:1056B00044E0C9480078642804DAC7480078401CF0
:1056C000C54908703AE0C5480078C349097888425E
:1056D00004DAC2480078401CC04908702EE0C04877
:1056E0000078642804DABE480078401CBC49087081
:1056F00024E025E095E0BB480078B9490978884264
:1057000004DAB8480078401CB649087016E0B6487C
:105710000078642804DAB4480078401CB249087064
:105720000CE0B2480078B0490978884204DAAF4802
:105730000078401CAD49087000E000BF00BF71E078
:105740009E480078012806D1A948007880F0010021
:10575000A749087064E09B48007809285ED2DFE81A
:1057600000F05D05111B27313D4753009848007834
:1057700098490978884204DD95480078401E94498C
:1057800008704CE093480078002804DD91480078C8
:10579000401E9049087042E08F4800788F49097890
:1057A000884204DD8C480078401E8B49087036E042
:1057B0008A480078002804DD88480078401E874920
:1057C00008702CE08648007886490978884204DD14
:1057D00083480078401E8249087020E081480078A4
:1057E000002804DD7F480078401E7E49087016E0DE
:1057F0007D4800787D490978884204DD7A48007840
:10580000401E794908700AE078480078002804DDD5
:1058100076480078401E7549087000E000BF00BF60
:1058200000E000BF00BF6748007800BB6D4800780B
:105830000090604803785D4802786EA102A8FAF7EC
:1058400045FD02AA01210846FCF7B8FE674800782A
:10585000009059480378544802786BA102A8FAF7DF
:1058600035FD02AA01210220FCF7A8FE4EE05548B2
:10587000007809283ED2DFE800F03D050C131A211C
:10588000282F36005248027865A102A8FAF71EFDBB
:1058900031E05048027867A102A8FAF717FD2AE024
:1058A0004D48027868A102A8FAF710FD23E04B48A2
:1058B00002786AA102A8FAF709FD1CE048480278BC
:1058C0006BA102A8FAF702FD15E0464802786DA127
:1058D00002A8FAF7FBFC0EE0434802786EA102A88A
:1058E000FAF7F4FC07E0414802786FA102A8FAF742
:1058F000EDFC00E000BF00BF02AA01210846FCF752
:105900005DFE6EA201210220FCF758FE2B480078B4
:1059100000283AD1254800782D490978884211DCC1
:10592000224800782B49097888420BDB1E48007812
:1059300029490978884205DC1B48007827490978FD
:10594000884223DA62480078F0B9012251026148A6
:10595000FCF706FD4FF47A70FDF773FB00224FF45D
:1059600000715C48FCF7FCFC0F4800781A49097884
:10597000884205DC0C48007815490978884202DD28
:1059800001201B490870A7E0C5E0FFE0A8E0000087
:105990000008004053797374656D206C6F61646911
:1059A0006E672E2E2E000000290000202800002007
:1059B000140000202A0000202B00002039000020C5
:1059C0002E000020380000203A0000202D0000208A
:1059D0002F00002030000020310000203200002085
:1059E0003300002034000020350000203600002065
:1059F0002C000020543A2532644320533A25326467
:105A00002F252D3264252500483A2532642525208E
:105A10004C3A2532642F252D32644C7578000000F5
:105A20005365742054656D705F483A253264432095
:105A3000000000005365742054656D705F4C3A257A
:105A400032644320000000005365742048756D697E
:105A50005F483A2532642525000000005365742014
:105A600048756D695F4C3A253264252500000000B9
:105A7000536F696C48756D695F483A253264252516
:105A800000000000536F696C48756D695F4C3A25E2
:105A900032642525200000004C696768745F483A2D
:105AA0002532644C757820004C696768745F4C3A05
:105AB0002532644C75782020000000002020205BF7
:105AC00053657474696E675D20202020000000001B
:105AD00037000020000C014001204B4908701AE0FB
